{
  "_format": "hh-sol-artifact-1",
  "contractName": "ElectionFactory",
  "sourceName": "contracts/ElectionFactory.sol",
  "abi": [
    {
      "anonymous": false,
      "inputs": [
        {
          "indexed": false,
          "internalType": "address",
          "name": "electionAddress",
          "type": "address"
        },
        {
          "indexed": true,
          "internalType": "address",
          "name": "creator",
          "type": "address"
        },
        {
          "indexed": true,
          "internalType": "uint256",
          "name": "id",
          "type": "uint256"
        },
        {
          "indexed": true,
          "internalType": "string",
          "name": "name",
          "type": "string"
        }
      ],
      "name": "NewElection",
      "type": "event"
    },
    {
      "inputs": [
        {
          "internalType": "string",
          "name": "_name",
          "type": "string"
        },
        {
          "internalType": "bytes",
          "name": "_pubKey",
          "type": "bytes"
        },
        {
          "internalType": "bytes",
          "name": "_modulo",
          "type": "bytes"
        },
        {
          "internalType": "uint256",
          "name": "_startTime",
          "type": "uint256"
        },
        {
          "internalType": "uint256",
          "name": "_duration",
          "type": "uint256"
        },
        {
          "internalType": "string[]",
          "name": "_candidates",
          "type": "string[]"
        }
      ],
      "name": "createElection",
      "outputs": [
        {
          "internalType": "uint256",
          "name": "",
          "type": "uint256"
        }
      ],
      "stateMutability": "nonpayable",
      "type": "function"
    },
    {
      "inputs": [
        {
          "internalType": "uint256",
          "name": "",
          "type": "uint256"
        }
      ],
      "name": "elections",
      "outputs": [
        {
          "internalType": "contract Election",
          "name": "",
          "type": "address"
        }
      ],
      "stateMutability": "view",
      "type": "function"
    },
    {
      "inputs": [
        {
          "internalType": "uint256",
          "name": "_id",
          "type": "uint256"
        }
      ],
      "name": "getElection",
      "outputs": [
        {
          "internalType": "contract Election",
          "name": "",
          "type": "address"
        }
      ],
      "stateMutability": "view",
      "type": "function"
    },
    {
      "inputs": [],
      "name": "getElections",
      "outputs": [
        {
          "internalType": "contract Election[]",
          "name": "",
          "type": "address[]"
        }
      ],
      "stateMutability": "view",
      "type": "function"
    },
    {
      "inputs": [
        {
          "internalType": "uint256",
          "name": "",
          "type": "uint256"
        }
      ],
      "name": "idToElection",
      "outputs": [
        {
          "internalType": "contract Election",
          "name": "",
          "type": "address"
        }
      ],
      "stateMutability": "view",
      "type": "function"
    }
  ],
  "bytecode": "0x608060405234801561001057600080fd5b50614cd1806100206000396000f3fe60806040523480156200001157600080fd5b50600436106200005e5760003560e01c8063450a1c8a146200006357806356596a3914620000995780635e6fef0114620000cf5780639d71077714620001055780639f3a7f52146200013b575b600080fd5b6200008160048036038101906200007b91906200082b565b6200015d565b60405162000090919062000954565b60405180910390f35b620000b76004803603810190620000b1919062000971565b6200036f565b604051620000c6919062000a2e565b60405180910390f35b620000ed6004803603810190620000e7919062000971565b620003a2565b604051620000fc919062000a2e565b60405180910390f35b6200012360048036038101906200011d919062000971565b620003e2565b60405162000132919062000a2e565b60405180910390f35b620001456200042c565b60405162000154919062000b19565b60405180910390f35b6000610e10831015620001a7576040517f08c379a00000000000000000000000000000000000000000000000000000000081526004016200019e9062000bc4565b60405180910390fd5b62054600831115620001f0576040517f08c379a0000000000000000000000000000000000000000000000000000000008152600401620001e79062000c5c565b60405180910390fd5b6000808054905090506000888289898989896040516200021090620004bc565b62000222979695949392919062000e7f565b604051809103906000f0801580156200023f573d6000803e3d6000fd5b5090506000819080600181540180825580915050600190039060005260206000200160009091909190916101000a81548173ffffffffffffffffffffffffffffffffffffffff021916908373ffffffffffffffffffffffffffffffffffffffff160217905550806001600084815260200190815260200160002060006101000a81548173ffffffffffffffffffffffffffffffffffffffff021916908373ffffffffffffffffffffffffffffffffffffffff1602179055508860405162000307919062000f5a565b6040518091039020823373ffffffffffffffffffffffffffffffffffffffff167fa01b8cd48dea962542287b980cb1888e71c93c1cfcfc85e57bee284b5bc591888460405162000358919062000f98565b60405180910390a481925050509695505050505050565b60016020528060005260406000206000915054906101000a900473ffffffffffffffffffffffffffffffffffffffff1681565b60008181548110620003b357600080fd5b906000526020600020016000915054906101000a900473ffffffffffffffffffffffffffffffffffffffff1681565b6000808281548110620003fa57620003f962000fb5565b5b9060005260206000200160009054906101000a900473ffffffffffffffffffffffffffffffffffffffff169050919050565b60606000805480602002602001604051908101604052809291908181526020018280548015620004b257602002820191906000526020600020905b8160009054906101000a900473ffffffffffffffffffffffffffffffffffffffff1673ffffffffffffffffffffffffffffffffffffffff168152602001906001019080831162000467575b5050505050905090565b613cb78062000fe583390190565b6000604051905090565b600080fd5b600080fd5b600080fd5b600080fd5b6000601f19601f8301169050919050565b7f4e487b7100000000000000000000000000000000000000000000000000000000600052604160045260246000fd5b6200053382620004e8565b810181811067ffffffffffffffff82111715620005555762000554620004f9565b5b80604052505050565b60006200056a620004ca565b905062000578828262000528565b919050565b600067ffffffffffffffff8211156200059b576200059a620004f9565b5b620005a682620004e8565b9050602081019050919050565b82818337600083830152505050565b6000620005d9620005d3846200057d565b6200055e565b905082815260208101848484011115620005f857620005f7620004e3565b5b62000605848285620005b3565b509392505050565b600082601f830112620006255762000624620004de565b5b813562000637848260208601620005c2565b91505092915050565b600067ffffffffffffffff8211156200065e576200065d620004f9565b5b6200066982620004e8565b9050602081019050919050565b60006200068d620006878462000640565b6200055e565b905082815260208101848484011115620006ac57620006ab620004e3565b5b620006b9848285620005b3565b509392505050565b600082601f830112620006d957620006d8620004de565b5b8135620006eb84826020860162000676565b91505092915050565b6000819050919050565b6200070981620006f4565b81146200071557600080fd5b50565b6000813590506200072981620006fe565b92915050565b600067ffffffffffffffff8211156200074d576200074c620004f9565b5b602082029050602081019050919050565b600080fd5b60006200077a62000774846200072f565b6200055e565b90508083825260208201905060208402830185811115620007a0576200079f6200075e565b5b835b81811015620007ee57803567ffffffffffffffff811115620007c957620007c8620004de565b5b808601620007d889826200060d565b85526020850194505050602081019050620007a2565b5050509392505050565b600082601f83011262000810576200080f620004de565b5b81356200082284826020860162000763565b91505092915050565b60008060008060008060c087890312156200084b576200084a620004d4565b5b600087013567ffffffffffffffff8111156200086c576200086b620004d9565b5b6200087a89828a016200060d565b965050602087013567ffffffffffffffff8111156200089e576200089d620004d9565b5b620008ac89828a01620006c1565b955050604087013567ffffffffffffffff811115620008d057620008cf620004d9565b5b620008de89828a01620006c1565b9450506060620008f189828a0162000718565b93505060806200090489828a0162000718565b92505060a087013567ffffffffffffffff811115620009285762000927620004d9565b5b6200093689828a01620007f8565b9150509295509295509295565b6200094e81620006f4565b82525050565b60006020820190506200096b600083018462000943565b92915050565b6000602082840312156200098a5762000989620004d4565b5b60006200099a8482850162000718565b91505092915050565b600073ffffffffffffffffffffffffffffffffffffffff82169050919050565b6000819050919050565b6000620009ee620009e8620009e284620009a3565b620009c3565b620009a3565b9050919050565b600062000a0282620009cd565b9050919050565b600062000a1682620009f5565b9050919050565b62000a288162000a09565b82525050565b600060208201905062000a45600083018462000a1d565b92915050565b600081519050919050565b600082825260208201905092915050565b6000819050602082019050919050565b62000a828162000a09565b82525050565b600062000a96838362000a77565b60208301905092915050565b6000602082019050919050565b600062000abc8262000a4b565b62000ac8818562000a56565b935062000ad58362000a67565b8060005b8381101562000b0c57815162000af0888262000a88565b975062000afd8362000aa2565b92505060018101905062000ad9565b5085935050505092915050565b6000602082019050818103600083015262000b35818462000aaf565b905092915050565b600082825260208201905092915050565b7f4e6f20656c656374696f6e732073686f72746572207468616e203120686f757260008201527f20616c6c6f776564000000000000000000000000000000000000000000000000602082015250565b600062000bac60288362000b3d565b915062000bb98262000b4e565b604082019050919050565b6000602082019050818103600083015262000bdf8162000b9d565b9050919050565b7f4e6f20656c656374696f6e73206c6f6e676572207468616e203420646179732060008201527f616c6c6f77656400000000000000000000000000000000000000000000000000602082015250565b600062000c4460278362000b3d565b915062000c518262000be6565b604082019050919050565b6000602082019050818103600083015262000c778162000c35565b9050919050565b600081519050919050565b60005b8381101562000ca957808201518184015260208101905062000c8c565b8381111562000cb9576000848401525b50505050565b600062000ccc8262000c7e565b62000cd8818562000b3d565b935062000cea81856020860162000c89565b62000cf581620004e8565b840191505092915050565b600081519050919050565b600082825260208201905092915050565b600062000d298262000d00565b62000d35818562000d0b565b935062000d4781856020860162000c89565b62000d5281620004e8565b840191505092915050565b600081519050919050565b600082825260208201905092915050565b6000819050602082019050919050565b600082825260208201905092915050565b600062000da78262000c7e565b62000db3818562000d89565b935062000dc581856020860162000c89565b62000dd081620004e8565b840191505092915050565b600062000de9838362000d9a565b905092915050565b6000602082019050919050565b600062000e0b8262000d5d565b62000e17818562000d68565b93508360208202850162000e2b8562000d79565b8060005b8581101562000e6d578484038952815162000e4b858262000ddb565b945062000e588362000df1565b925060208a0199505060018101905062000e2f565b50829750879550505050505092915050565b600060e082019050818103600083015262000e9b818a62000cbf565b905062000eac602083018962000943565b818103604083015262000ec0818862000d1c565b9050818103606083015262000ed6818762000d1c565b905062000ee7608083018662000943565b62000ef660a083018562000943565b81810360c083015262000f0a818462000dfe565b905098975050505050505050565b600081905092915050565b600062000f308262000c7e565b62000f3c818562000f18565b935062000f4e81856020860162000c89565b80840191505092915050565b600062000f68828462000f23565b915081905092915050565b600062000f8082620009a3565b9050919050565b62000f928162000f73565b82525050565b600060208201905062000faf600083018462000f87565b92915050565b7f4e487b7100000000000000000000000000000000000000000000000000000000600052603260045260246000fdfe60806040523480156200001157600080fd5b5060405162003cb738038062003cb783398181016040528101906200003791906200072d565b6020600681905550602060078190555086600090805190602001906200005f92919062000264565b508560018190555084600290805190602001906200007f929190620002f5565b50836003908051906020019062000098929190620002f5565b508142620000a791906200088b565b831115620000bc5782600481905550620000c4565b426004819055505b81600454620000d491906200088b565b600581905550600860405180606001604052806040518060400160405280600981526020017f4e756c6c20566f746500000000000000000000000000000000000000000000008152508152602001600081526020016000815250908060018154018082558091505060019003906000526020600020906003020160009091909190915060008201518160000190805190602001906200017592919062000264565b506020820151816001015560408201518160020155505060005b8151811015620002565760086040518060600160405280848481518110620001bc57620001bb620008e8565b5b6020026020010151815260200160008152602001600184620001df91906200088b565b815250908060018154018082558091505060019003906000526020600020906003020160009091909190915060008201518160000190805190602001906200022992919062000264565b506020820151816001015560408201518160020155505080806200024d9062000917565b9150506200018f565b5050505050505050620009ca565b828054620002729062000994565b90600052602060002090601f016020900481019282620002965760008555620002e2565b82601f10620002b157805160ff1916838001178555620002e2565b82800160010185558215620002e2579182015b82811115620002e1578251825591602001919060010190620002c4565b5b509050620002f1919062000386565b5090565b828054620003039062000994565b90600052602060002090601f01602090048101928262000327576000855562000373565b82601f106200034257805160ff191683800117855562000373565b8280016001018555821562000373579182015b828111156200037257825182559160200191906001019062000355565b5b50905062000382919062000386565b5090565b5b80821115620003a157600081600090555060010162000387565b5090565b6000604051905090565b600080fd5b600080fd5b600080fd5b600080fd5b6000601f19601f8301169050919050565b7f4e487b7100000000000000000000000000000000000000000000000000000000600052604160045260246000fd5b6200040e82620003c3565b810181811067ffffffffffffffff8211171562000430576200042f620003d4565b5b80604052505050565b600062000445620003a5565b905062000453828262000403565b919050565b600067ffffffffffffffff821115620004765762000475620003d4565b5b6200048182620003c3565b9050602081019050919050565b60005b83811015620004ae57808201518184015260208101905062000491565b83811115620004be576000848401525b50505050565b6000620004db620004d58462000458565b62000439565b905082815260208101848484011115620004fa57620004f9620003be565b5b620005078482856200048e565b509392505050565b600082601f830112620005275762000526620003b9565b5b815162000539848260208601620004c4565b91505092915050565b6000819050919050565b620005578162000542565b81146200056357600080fd5b50565b60008151905062000577816200054c565b92915050565b600067ffffffffffffffff8211156200059b576200059a620003d4565b5b620005a682620003c3565b9050602081019050919050565b6000620005ca620005c4846200057d565b62000439565b905082815260208101848484011115620005e957620005e8620003be565b5b620005f68482856200048e565b509392505050565b600082601f830112620006165762000615620003b9565b5b815162000628848260208601620005b3565b91505092915050565b600067ffffffffffffffff8211156200064f576200064e620003d4565b5b602082029050602081019050919050565b600080fd5b60006200067c620006768462000631565b62000439565b90508083825260208201905060208402830185811115620006a257620006a162000660565b5b835b81811015620006f057805167ffffffffffffffff811115620006cb57620006ca620003b9565b5b808601620006da89826200050f565b85526020850194505050602081019050620006a4565b5050509392505050565b600082601f830112620007125762000711620003b9565b5b81516200072484826020860162000665565b91505092915050565b600080600080600080600060e0888a0312156200074f576200074e620003af565b5b600088015167ffffffffffffffff81111562000770576200076f620003b4565b5b6200077e8a828b016200050f565b9750506020620007918a828b0162000566565b965050604088015167ffffffffffffffff811115620007b557620007b4620003b4565b5b620007c38a828b01620005fe565b955050606088015167ffffffffffffffff811115620007e757620007e6620003b4565b5b620007f58a828b01620005fe565b9450506080620008088a828b0162000566565b93505060a06200081b8a828b0162000566565b92505060c088015167ffffffffffffffff8111156200083f576200083e620003b4565b5b6200084d8a828b01620006fa565b91505092959891949750929550565b7f4e487b7100000000000000000000000000000000000000000000000000000000600052601160045260246000fd5b6000620008988262000542565b9150620008a58362000542565b9250827fffffffffffffffffffffffffffffffffffffffffffffffffffffffffffffffff03821115620008dd57620008dc6200085c565b5b828201905092915050565b7f4e487b7100000000000000000000000000000000000000000000000000000000600052603260045260246000fd5b6000620009248262000542565b91507fffffffffffffffffffffffffffffffffffffffffffffffffffffffffffffffff8214156200095a57620009596200085c565b5b600182019050919050565b7f4e487b7100000000000000000000000000000000000000000000000000000000600052602260045260246000fd5b60006002820490506001821680620009ad57607f821691505b60208210811415620009c457620009c362000965565b5b50919050565b6132dd80620009da6000396000f3fe608060405234801561001057600080fd5b50600436106100575760003560e01c80633477ee2e1461005c5780639d9d3b2d1461008e578063c6b19d6a146100ac578063d8bff5a5146100c8578063dfbf53ae146100fa575b600080fd5b61007660048036038101906100719190612537565b61011a565b6040516100859392919061260c565b60405180910390f35b6100966101dc565b6040516100a391906126f3565b60405180910390f35b6100c660048036038101906100c1919061284a565b6105d1565b005b6100e260048036038101906100dd919061294f565b610bb3565b6040516100f193929190612a24565b60405180910390f35b610102610ddb565b6040516101119392919061260c565b60405180910390f35b6008818154811061012a57600080fd5b906000526020600020906003020160009150905080600001805461014d90612a98565b80601f016020809104026020016040519081016040528092919081815260200182805461017990612a98565b80156101c65780601f1061019b576101008083540402835291602001916101c6565b820191906000526020600020905b8154815290600101906020018083116101a957829003601f168201915b5050505050908060010154908060020154905083565b6101e46122f3565b6005544211610228576040517f08c379a000000000000000000000000000000000000000000000000000000000815260040161021f90612b3c565b60405180910390fd5b60006009600001805461023a90612a98565b9050146102fb57600960405180606001604052908160008201805461025e90612a98565b80601f016020809104026020016040519081016040528092919081815260200182805461028a90612a98565b80156102d75780601f106102ac576101008083540402835291602001916102d7565b820191906000526020600020905b8154815290600101906020018083116102ba57829003601f168201915b505050505081526020016001820154815260200160028201548152505090506105ce565b6103036122f3565b60005b600880549050811015610468576009600101546008828154811061032d5761032c612b5c565b5b9060005260206000209060030201600101541061045557600960405180606001604052908160008201805461036190612a98565b80601f016020809104026020016040519081016040528092919081815260200182805461038d90612a98565b80156103da5780601f106103af576101008083540402835291602001916103da565b820191906000526020600020905b8154815290600101906020018083116103bd57829003601f168201915b505050505081526020016001820154815260200160028201548152505091506008818154811061040d5761040c612b5c565b5b90600052602060002090600302016009600082018160000190805461043190612a98565b61043c929190612314565b5060018201548160010155600282015481600201559050505b808061046090612bba565b915050610306565b50600960010154816020015114156105175760405180606001604052806040518060400160405280600481526020017f44726177000000000000000000000000000000000000000000000000000000008152508152602001600960010154815260200160016008805490506104dd9190612c03565b815250600960008201518160000190805190602001906104fe9291906123a1565b5060208201518160010155604082015181600201559050505b600960405180606001604052908160008201805461053490612a98565b80601f016020809104026020016040519081016040528092919081815260200182805461056090612a98565b80156105ad5780601f10610582576101008083540402835291602001916105ad565b820191906000526020600020905b81548152906001019060200180831161059057829003601f168201915b50505050508152602001600182015481526020016002820154815250509150505b90565b6005544210610615576040517f08c379a000000000000000000000000000000000000000000000000000000000815260040161060c90612ccb565b60405180910390fd5b60006040518060400160405280858152602001838152509050600061063c85600080610e7b565b9050600061064c84600080610e7b565b905060006106e66003805461066090612a98565b80601f016020809104026020016040519081016040528092919081815260200182805461068c90612a98565b80156106d95780601f106106ae576101008083540402835291602001916106d9565b820191906000526020600020905b8154815290600101906020018083116106bc57829003601f168201915b5050505050600080610e7b565b905060006106f5848484610f04565b9050600061078f6002805461070990612a98565b80601f016020809104026020016040519081016040528092919081815260200182805461073590612a98565b80156107825780601f1061075757610100808354040283529160200191610782565b820191906000526020600020905b81548152906001019060200180831161076557829003601f168201915b5050505050600080610e7b565b9050600061079e838386610f28565b90506060806107b0836000015161100a565b8092508193505050818b6040516020016107cb929190612d27565b60405160208183030381529060405280519060200120816107eb90612d87565b1461082b576040517f08c379a000000000000000000000000000000000000000000000000000000000815260040161082290612e3a565b60405180910390fd5b6000610836836111cf565b9050600080600090506000600190505b81158015610858575060088054905081105b156108f0578360405160200161086e9190612e96565b604051602081830303815290604052805190602001206008828154811061089857610897612b5c565b5b90600052602060002090600302016000016040516020016108b99190612f41565b6040516020818303038152906040528051906020012014156108dd57600191508092505b80806108e890612bba565b915050610846565b50806108fb57600091505b6008828154811061090f5761090e612b5c565b5b9060005260206000209060030201600101600081548092919061093190612bba565b919050555060405180606001604052803373ffffffffffffffffffffffffffffffffffffffff1681526020018d81526020016008848154811061097757610976612b5c565b5b90600052602060002090600302016040518060600160405290816000820180546109a090612a98565b80601f01602080910402602001604051908101604052809291908181526020018280546109cc90612a98565b8015610a195780601f106109ee57610100808354040283529160200191610a19565b820191906000526020600020905b8154815290600101906020018083116109fc57829003601f168201915b5050505050815260200160018201548152602001600282015481525050815250600c60003373ffffffffffffffffffffffffffffffffffffffff1673ffffffffffffffffffffffffffffffffffffffff16815260200190815260200160002060008201518160000160006101000a81548173ffffffffffffffffffffffffffffffffffffffff021916908373ffffffffffffffffffffffffffffffffffffffff1602179055506020820151816001016000820151816000019080519060200190610ae4929190612427565b506020820151816001019080519060200190610b01929190612427565b5050506040820151816003016000820151816000019080519060200190610b299291906123a1565b50602082015181600101556040820151816002015550509050507f577a95891eb3fd2d06277c6464ba8af00cacdbdb91925351050f7ffaa44faf1a338560088581548110610b7a57610b79612b5c565b5b9060005260206000209060030201600001604051610b9a93929190613022565b60405180910390a1505050505050505050505050505050565b600c6020528060005260406000206000915090508060000160009054906101000a900473ffffffffffffffffffffffffffffffffffffffff169080600101604051806040016040529081600082018054610c0c90612a98565b80601f0160208091040260200160405190810160405280929190818152602001828054610c3890612a98565b8015610c855780601f10610c5a57610100808354040283529160200191610c85565b820191906000526020600020905b815481529060010190602001808311610c6857829003601f168201915b50505050508152602001600182018054610c9e90612a98565b80601f0160208091040260200160405190810160405280929190818152602001828054610cca90612a98565b8015610d175780601f10610cec57610100808354040283529160200191610d17565b820191906000526020600020905b815481529060010190602001808311610cfa57829003601f168201915b5050505050815250509080600301604051806060016040529081600082018054610d4090612a98565b80601f0160208091040260200160405190810160405280929190818152602001828054610d6c90612a98565b8015610db95780601f10610d8e57610100808354040283529160200191610db9565b820191906000526020600020905b815481529060010190602001808311610d9c57829003601f168201915b5050505050815260200160018201548152602001600282015481525050905083565b6009806000018054610dec90612a98565b80601f0160208091040260200160405190810160405280929190818152602001828054610e1890612a98565b8015610e655780601f10610e3a57610100808354040283529160200191610e65565b820191906000526020600020905b815481529060010190602001808311610e4857829003601f168201915b5050505050908060010154908060020154905083565b610e836124ad565b600060208551610e939190613096565b14610e9d57600080fd5b81610eb057838160000181905250610edb565b606060208551016040518181838960046101c2fa819350828201604052505050808260000181905250505b82816020019015159081151581525050610ef4846113c5565b8160400181815250509392505050565b610f0c6124ad565b610f1f610f198585611404565b8361145e565b90509392505050565b610f306124ad565b600015158360200151151514610f4557600080fd5b6000610f5e8560000151856000015185600001516114b3565b9050600060208201519050610100600160208451610f7c91906130c7565b610f8691906130f8565b610f90919061312c565b610f9982611585565b610fa39190612c03565b905081836000018190525060001515866020015115151480610fda575085602001518015610fd957506000610fd7866117e5565b145b5b610fe5576001610fe8565b60005b8360200190151590811515815250508083604001818152505050509392505050565b606080600060065467ffffffffffffffff81111561102b5761102a61271f565b5b6040519080825280601f01601f19166020018201604052801561105d5781602001600182028036833780820191505090505b509050600060075467ffffffffffffffff81111561107e5761107d61271f565b5b6040519080825280601f01601f1916602001820160405280156110b05781602001600182028036833780820191505090505b50905060005b600654811015611133578581815181106110d3576110d2612b5c565b5b602001015160f81c60f81b8382815181106110f1576110f0612b5c565b5b60200101907effffffffffffffffffffffffffffffffffffffffffffffffffffffffffffff1916908160001a905350808061112b90612bba565b9150506110b6565b5060005b6007548110156111c15785600654826111509190612c03565b8151811061116157611160612b5c565b5b602001015160f81c60f81b82828151811061117f5761117e612b5c565b5b60200101907effffffffffffffffffffffffffffffffffffffffffffffffffffffffffffff1916908160001a90535080806111b990612bba565b915050611137565b508181935093505050915091565b60606000806001905060008080600090505b86518110156112c757600060f81b87828151811061120257611201612b5c565b5b602001015160f81c60f81b7effffffffffffffffffffffffffffffffffffffffffffffffffffffffffffff19161480156112395750835b1561125157848061124990612bba565b955050611256565b600093505b600060f81b87828151811061126e5761126d612b5c565b5b602001015160f81c60f81b7effffffffffffffffffffffffffffffffffffffffffffffffffffffffffffff1916141580156112a7575082155b156112b457809150600192505b80806112bf90612bba565b9150506111e1565b5060008487516112d791906130f8565b67ffffffffffffffff8111156112f0576112ef61271f565b5b6040519080825280601f01601f1916602001820160405280156113225781602001600182028036833780820191505090505b5090506000808390505b88518110156113b65788818151811061134857611347612b5c565b5b602001015160f81c60f81b83838151811061136657611365612b5c565b5b60200101907effffffffffffffffffffffffffffffffffffffffffffffffffffffffffffff1916908160001a90535081806113a090612bba565b92505080806113ae90612bba565b91505061132c565b50819650505050505050919050565b600080602083015190506008602084516113df91906130f8565b6113e9919061312c565b6113f282611585565b6113fc9190612c03565b915050919050565b61140c6124ad565b611418838360006117fa565b9050600061142884846001611903565b1461144b57600061143b848460016117fa565b90506114478282611af8565b9150505b611456816002611d4d565b905092915050565b6114666124ad565b6000604051806060016040528060405180604001604052806020815260200160018152508152602001600015158152602001600181525090506114aa848285610f28565b91505092915050565b606083518351835160405183815282602082015281604082015283606082018560208b0160046101c2fa84606001848184018660208c0160046101c2fa91508481019050838184018560208b0160046101c2fa9150816000811461151657611518565bfe5b5083810190508383606001828560056105465a03fa9150816000811461153d5761153f565bfe5b5083836060015b60016000825114141561156457602081019050602082039150611546565b60208103985081895285856060010160405250505050505050509392505050565b60008082905060018303925060028304831792506004830483179250601083048317925061010083048317925062010000830483179250640100000000830483179250680100000000000000008304831792507001000000000000000000000000000000008304831792506001830192506040517ff8f9cbfae6cc78fbefe7cdc3a1793dfcf4f0e8bbd8cec470b6a28a7a5a3e1efd81527ff5ecf1b3e9debc68e1d9cfabc5997135bfb7a7a3938b7b606b5b4b3f2f1f0ffe60208201527ff6e4ed9ff2d6b458eadcdf97bd91692de2d4da8fd2d0ac50c6ae9a827252361660408201527fc8c0b887b0a8a4489c948c7f847c6125746c645c544c444038302820181008ff60608201527ff7cae577eec2a03cf3bad76fb589591debb2dd67e0aa9834bea6925f6a4a2e0e60808201527fe39ed557db96902cd38ed14fad815115c786af479b7e8324736353433727170760a08201527fc976c13bb96e881cb166a933a55e490d9d56952b8d4e801485467d236242260660c08201527f753a6d1b65325d0c552a4d1345224105391a310b29122104190a11030902010060e082015261010081016040527e818283848586878898a8b8c8d8e8f929395969799a9b9d9e9faaeb6bedeeff7f01000000000000000000000000000000000000000000000000000000000000008082870204818160ff038501510495507f8000000000000000000000000000000000000000000000000000000000000000851161010002860195505050505060006001826117bd91906130f8565b82161480156117cd575060008314155b156117df57816117dc90612bba565b91505b50919050565b60008151518251016002815106915050919050565b6118026124ad565b600060405180606001604052806040518060400160405280602081526020016002815250815260200160001515815260200160028152509050600080606060008614611857576118528888611af8565b611862565b6118618888611e38565b5b9450600085604001519050600281029350610100846118819190613096565b6001901b92506040518060400160405280602081526020016000815250915060206001610100860401028252826020830152602082510182016040526118c56124ad565b8281600001819052506000816020019015159081151581525050848160400181815250506118f4878783610f28565b96505050505050509392505050565b6000806001905082156119ce5784602001518015611922575083602001515b1561194f577fffffffffffffffffffffffffffffffffffffffffffffffffffffffffffffffff90506119cd565b600015158560200151151514801561196f57506001151584602001511515145b1561197e576001915050611af1565b600115158560200151151514801561199e57506000151584602001511515145b156119cc577fffffffffffffffffffffffffffffffffffffffffffffffffffffffffffffffff915050611af1565b5b5b8360400151856040015111156119f3578060016119eb9190613190565b915050611af1565b846040015184604001511115611a3757807fffffffffffffffffffffffffffffffffffffffffffffffffffffffffffffffff611a2f9190613190565b915050611af1565b6000806000806000896000015151905060208a510194506020895101935060005b81811015611ae55780860151935080850151925082841115611a8f57866001611a819190613190565b975050505050505050611af1565b83831115611ad157867fffffffffffffffffffffffffffffffffffffffffffffffffffffffffffffffff611ac39190613190565b975050505050505050611af1565b602081611ade9190612c03565b9050611a58565b50600096505050505050505b9392505050565b611b006124ad565b6000604051806060016040528060405180604001604052806020815260200160008152508152602001600015158152602001600081525090506060600080611b4a87876000611903565b9150866020015180611b5d575085602001515b15611c905786602001518015611b74575085602001515b15611c1c576001821415611bb257611b9487600001518760000151612094565b80925081945050506001856020019015159081151581525050611c17565b7fffffffffffffffffffffffffffffffffffffffffffffffffffffffffffffffff821415611c0a57611bec86600001518860000151612094565b80925081945050506000856020019015159081151581525050611c16565b83945050505050611d47565b5b611c8b565b60008212611c4857611c3b8760000151876000015189604001516121a2565b8092508194505050611c68565b611c5f8660000151886000015188604001516121a2565b80925081945050505b8660200151611c78576000611c7b565b60015b8560200190151590811515815250505b611d2f565b6001821415611cc957611cab87600001518760000151612094565b80925081945050506000856020019015159081151581525050611d2e565b7fffffffffffffffffffffffffffffffffffffffffffffffffffffffffffffffff821415611d2157611d0386600001518860000151612094565b80925081945050506001856020019015159081151581525050611d2d565b83945050505050611d47565b5b5b82856000018190525080856040018181525050505050505b92915050565b611d556124ad565b606060008084610100611d6891906130f8565b9050600080600080896000015151905060206000039150808a5101925060006020820390505b82811015611dda57835196506000811460018114611db25760208503519550611db7565b600095505b508987901c96508585901b94508487178452602084039350602081039050611d8e565b506020830192505b600083511415611dfd57602083019250602081039050611de2565b602083039650808752868a60000181905250888a60400151611e1f91906130f8565b8a60400181815250508997505050505050505092915050565b611e406124ad565b60006040518060600160405280604051806040016040528060208152602001600081525081526020016000151581526020016000815250905060008460400151148015611e91575060008360400151145b15611e9f578091505061208e565b600084604001511415611eb5578291505061208e565b600083604001511415611ecb578391505061208e565b6060600080611edc87876000611903565b9050866020015180611eef575085602001515b156120185786602001518015611f06575085602001515b15611f6d5760008112611f3757611f2a8760000151876000015189604001516121a2565b8093508194505050611f57565b611f4e8660000151886000015188604001516121a2565b80935081945050505b6001856020019015159081151581525050612013565b6001811415611fa957611f8887600001518760000151612094565b80935081945050508660200151856020019015159081151581525050612012565b7fffffffffffffffffffffffffffffffffffffffffffffffffffffffffffffffff81141561200557611fe386600001518860000151612094565b8093508194505050866020015115856020019015159081151581525050612011565b8394505050505061208e565b5b5b612076565b60008112612044576120378760000151876000015189604001516121a2565b8093508194505050612064565b61205b8660000151886000015188604001516121a2565b80935081945050505b60008560200190151590811515815250505b82856000018190525081856040018181525050505050505b92915050565b606060006060600059600160000387518751808203828b01828b0184870160208101865b60008082141415612149578451868211600181146120fa578c8203855260018d146000831416600181146120ef5760009d506120f4565b60019d505b50612130565b85518d81840303865260018e148c8214168e8201841017600181146121225760009e50612127565b60019e505b50602087039650505b50602084039350602086039550506020810390506120b8565b506020820191505b60008251141561217257602089019850602087039650602082019150612151565b889a50868b52806040525050505050505050506000612190836113c5565b90508281945094505050509250929050565b606060006060596001600003600088518901885189018a5160208601018b515b6000808214141561226f5783518c518e51038211600181146122075786820184526001871482891416600181146121fc5760009750612201565b600197505b50612256565b8451878184010185528781038903831160018114612248576000821160008a11178a8514166001811461223d5760009950612242565b600199505b5061224d565b600198505b50602086039550505b50602083039250602085039450506020810390506121c2565b506000841460018114612285576001825261228c565b6020870196505b50859650836020028c51018752602087510187016040525050505050506000602082015190506001610100866122c29190613096565b82901c14806122d15750600181145b156122e357846122e090612bba565b94505b8185935093505050935093915050565b60405180606001604052806060815260200160008152602001600081525090565b82805461232090612a98565b90600052602060002090601f0160209004810192826123425760008555612390565b82601f106123535780548555612390565b8280016001018555821561239057600052602060002091601f016020900482015b8281111561238f578254825591600101919060010190612374565b5b50905061239d91906124d0565b5090565b8280546123ad90612a98565b90600052602060002090601f0160209004810192826123cf5760008555612416565b82601f106123e857805160ff1916838001178555612416565b82800160010185558215612416579182015b828111156124155782518255916020019190600101906123fa565b5b50905061242391906124d0565b5090565b82805461243390612a98565b90600052602060002090601f016020900481019282612455576000855561249c565b82601f1061246e57805160ff191683800117855561249c565b8280016001018555821561249c579182015b8281111561249b578251825591602001919060010190612480565b5b5090506124a991906124d0565b5090565b604051806060016040528060608152602001600015158152602001600081525090565b5b808211156124e95760008160009055506001016124d1565b5090565b6000604051905090565b600080fd5b600080fd5b6000819050919050565b61251481612501565b811461251f57600080fd5b50565b6000813590506125318161250b565b92915050565b60006020828403121561254d5761254c6124f7565b5b600061255b84828501612522565b91505092915050565b600081519050919050565b600082825260208201905092915050565b60005b8381101561259e578082015181840152602081019050612583565b838111156125ad576000848401525b50505050565b6000601f19601f8301169050919050565b60006125cf82612564565b6125d9818561256f565b93506125e9818560208601612580565b6125f2816125b3565b840191505092915050565b61260681612501565b82525050565b6000606082019050818103600083015261262681866125c4565b905061263560208301856125fd565b61264260408301846125fd565b949350505050565b600082825260208201905092915050565b600061266682612564565b612670818561264a565b9350612680818560208601612580565b612689816125b3565b840191505092915050565b61269d81612501565b82525050565b600060608301600083015184820360008601526126c0828261265b565b91505060208301516126d56020860182612694565b5060408301516126e86040860182612694565b508091505092915050565b6000602082019050818103600083015261270d81846126a3565b905092915050565b600080fd5b600080fd5b7f4e487b7100000000000000000000000000000000000000000000000000000000600052604160045260246000fd5b612757826125b3565b810181811067ffffffffffffffff821117156127765761277561271f565b5b80604052505050565b60006127896124ed565b9050612795828261274e565b919050565b600067ffffffffffffffff8211156127b5576127b461271f565b5b6127be826125b3565b9050602081019050919050565b82818337600083830152505050565b60006127ed6127e88461279a565b61277f565b9050828152602081018484840111156128095761280861271a565b5b6128148482856127cb565b509392505050565b600082601f83011261283157612830612715565b5b81356128418482602086016127da565b91505092915050565b600080600060608486031215612863576128626124f7565b5b600084013567ffffffffffffffff811115612881576128806124fc565b5b61288d8682870161281c565b935050602084013567ffffffffffffffff8111156128ae576128ad6124fc565b5b6128ba8682870161281c565b925050604084013567ffffffffffffffff8111156128db576128da6124fc565b5b6128e78682870161281c565b9150509250925092565b600073ffffffffffffffffffffffffffffffffffffffff82169050919050565b600061291c826128f1565b9050919050565b61292c81612911565b811461293757600080fd5b50565b60008135905061294981612923565b92915050565b600060208284031215612965576129646124f7565b5b60006129738482850161293a565b91505092915050565b61298581612911565b82525050565b600081519050919050565b600082825260208201905092915050565b60006129b28261298b565b6129bc8185612996565b93506129cc818560208601612580565b6129d5816125b3565b840191505092915050565b600060408301600083015184820360008601526129fd82826129a7565b91505060208301518482036020860152612a1782826129a7565b9150508091505092915050565b6000606082019050612a39600083018661297c565b8181036020830152612a4b81856129e0565b90508181036040830152612a5f81846126a3565b9050949350505050565b7f4e487b7100000000000000000000000000000000000000000000000000000000600052602260045260246000fd5b60006002820490506001821680612ab057607f821691505b60208210811415612ac457612ac3612a69565b5b50919050565b7f456c656374696f6e206d7573742062652066696e697368656420746f20636f6d60008201527f707574652074616c6c792e000000000000000000000000000000000000000000602082015250565b6000612b26602b8361256f565b9150612b3182612aca565b604082019050919050565b60006020820190508181036000830152612b5581612b19565b9050919050565b7f4e487b7100000000000000000000000000000000000000000000000000000000600052603260045260246000fd5b7f4e487b7100000000000000000000000000000000000000000000000000000000600052601160045260246000fd5b6000612bc582612501565b91507fffffffffffffffffffffffffffffffffffffffffffffffffffffffffffffffff821415612bf857612bf7612b8b565b5b600182019050919050565b6000612c0e82612501565b9150612c1983612501565b9250827fffffffffffffffffffffffffffffffffffffffffffffffffffffffffffffffff03821115612c4e57612c4d612b8b565b5b828201905092915050565b7f456c656374696f6e2068617320616c72656164792066696e69736865642e204e60008201527f6f206d6f726520766f7465732061636365707465642e00000000000000000000602082015250565b6000612cb560368361256f565b9150612cc082612c59565b604082019050919050565b60006020820190508181036000830152612ce481612ca8565b9050919050565b600081905092915050565b6000612d018261298b565b612d0b8185612ceb565b9350612d1b818560208601612580565b80840191505092915050565b6000612d338285612cf6565b9150612d3f8284612cf6565b91508190509392505050565b6000819050602082019050919050565b6000819050919050565b6000612d718251612d5b565b80915050919050565b600082821b905092915050565b6000612d928261298b565b82612d9c84612d4b565b9050612da781612d65565b92506020821015612de757612de27fffffffffffffffffffffffffffffffffffffffffffffffffffffffffffffffff83602003600802612d7a565b831692505b5050919050565b7f496e76616c696420686173680000000000000000000000000000000000000000600082015250565b6000612e24600c8361256f565b9150612e2f82612dee565b602082019050919050565b60006020820190508181036000830152612e5381612e17565b9050919050565b600081905092915050565b6000612e7082612564565b612e7a8185612e5a565b9350612e8a818560208601612580565b80840191505092915050565b6000612ea28284612e65565b915081905092915050565b60008190508160005260206000209050919050565b60008154612ecf81612a98565b612ed98186612e5a565b94506001821660008114612ef45760018114612f0557612f38565b60ff19831686528186019350612f38565b612f0e85612ead565b60005b83811015612f3057815481890152600182019150602081019050612f11565b838801955050505b50505092915050565b6000612f4d8284612ec2565b915081905092915050565b600082825260208201905092915050565b6000612f748261298b565b612f7e8185612f58565b9350612f8e818560208601612580565b612f97816125b3565b840191505092915050565b60008154612faf81612a98565b612fb9818661256f565b94506001821660008114612fd45760018114612fe657613019565b60ff1983168652602086019350613019565b612fef85612ead565b60005b8381101561301157815481890152600182019150602081019050612ff2565b808801955050505b50505092915050565b6000606082019050613037600083018661297c565b81810360208301526130498185612f69565b9050818103604083015261305d8184612fa2565b9050949350505050565b7f4e487b7100000000000000000000000000000000000000000000000000000000600052601260045260246000fd5b60006130a182612501565b91506130ac83612501565b9250826130bc576130bb613067565b5b828206905092915050565b60006130d282612501565b91506130dd83612501565b9250826130ed576130ec613067565b5b828204905092915050565b600061310382612501565b915061310e83612501565b92508282101561312157613120612b8b565b5b828203905092915050565b600061313782612501565b915061314283612501565b9250817fffffffffffffffffffffffffffffffffffffffffffffffffffffffffffffffff048311821515161561317b5761317a612b8b565b5b828202905092915050565b6000819050919050565b600061319b82613186565b91506131a683613186565b9250827f7fffffffffffffffffffffffffffffffffffffffffffffffffffffffffffffff04821160008413600084131616156131e5576131e4612b8b565b5b817f8000000000000000000000000000000000000000000000000000000000000000058312600084126000841316161561322257613221612b8b565b5b827f8000000000000000000000000000000000000000000000000000000000000000058212600084136000841216161561325f5761325e612b8b565b5b827f7fffffffffffffffffffffffffffffffffffffffffffffffffffffffffffffff058212600084126000841216161561329c5761329b612b8b565b5b82820290509291505056fea26469706673582212203ad1fca3861bd87655a4b1cf145b0d2f92b52008839991af2333a7b387bbd53564736f6c634300080a0033a264697066735822122035c94a3a42fa7bd2795bba3aa3e924ab9f7eb3ed71d40f4619b7d29677668c5964736f6c634300080a0033",
  "linkReferences": {},
  "deployedLinkReferences": {}
}