{
  "_format": "hh-sol-artifact-1",
  "contractName": "ElectionFactory",
  "sourceName": "contracts/ElectionFactory.sol",
  "abi": [
    {
      "anonymous": false,
      "inputs": [
        {
          "indexed": false,
          "internalType": "address",
          "name": "electionAddress",
          "type": "address"
        },
        {
          "indexed": true,
          "internalType": "address",
          "name": "creator",
          "type": "address"
        },
        {
          "indexed": true,
          "internalType": "uint256",
          "name": "id",
          "type": "uint256"
        },
        {
          "indexed": true,
          "internalType": "string",
          "name": "name",
          "type": "string"
        }
      ],
      "name": "NewElection",
      "type": "event"
    },
    {
      "inputs": [
        {
          "internalType": "string",
          "name": "_name",
          "type": "string"
        },
        {
          "internalType": "bytes",
          "name": "_pubKey",
          "type": "bytes"
        },
        {
          "internalType": "bytes",
          "name": "_modulo",
          "type": "bytes"
        },
        {
          "internalType": "uint256",
          "name": "_startTime",
          "type": "uint256"
        },
        {
          "internalType": "uint256",
          "name": "_duration",
          "type": "uint256"
        },
        {
          "internalType": "string[]",
          "name": "_candidates",
          "type": "string[]"
        }
      ],
      "name": "createElection",
      "outputs": [
        {
          "internalType": "uint256",
          "name": "",
          "type": "uint256"
        }
      ],
      "stateMutability": "nonpayable",
      "type": "function"
    },
    {
      "inputs": [
        {
          "internalType": "uint256",
          "name": "",
          "type": "uint256"
        }
      ],
      "name": "elections",
      "outputs": [
        {
          "internalType": "contract Election",
          "name": "",
          "type": "address"
        }
      ],
      "stateMutability": "view",
      "type": "function"
    },
    {
      "inputs": [
        {
          "internalType": "uint256",
          "name": "_id",
          "type": "uint256"
        }
      ],
      "name": "getElection",
      "outputs": [
        {
          "internalType": "contract Election",
          "name": "",
          "type": "address"
        }
      ],
      "stateMutability": "view",
      "type": "function"
    },
    {
      "inputs": [],
      "name": "getElections",
      "outputs": [
        {
          "internalType": "contract Election[]",
          "name": "",
          "type": "address[]"
        }
      ],
      "stateMutability": "view",
      "type": "function"
    },
    {
      "inputs": [
        {
          "internalType": "uint256",
          "name": "",
          "type": "uint256"
        }
      ],
      "name": "idToElection",
      "outputs": [
        {
          "internalType": "contract Election",
          "name": "",
          "type": "address"
        }
      ],
      "stateMutability": "view",
      "type": "function"
    }
  ],
  "bytecode": "0x608060405234801561001057600080fd5b50614b79806100206000396000f3fe60806040523480156200001157600080fd5b50600436106200005e5760003560e01c8063450a1c8a146200006357806356596a3914620000995780635e6fef0114620000cf5780639d71077714620001055780639f3a7f52146200013b575b600080fd5b6200008160048036038101906200007b91906200082b565b6200015d565b60405162000090919062000954565b60405180910390f35b620000b76004803603810190620000b1919062000971565b6200036f565b604051620000c6919062000a2e565b60405180910390f35b620000ed6004803603810190620000e7919062000971565b620003a2565b604051620000fc919062000a2e565b60405180910390f35b6200012360048036038101906200011d919062000971565b620003e2565b60405162000132919062000a2e565b60405180910390f35b620001456200042c565b60405162000154919062000b19565b60405180910390f35b6000610e10831015620001a7576040517f08c379a00000000000000000000000000000000000000000000000000000000081526004016200019e9062000bc4565b60405180910390fd5b62054600831115620001f0576040517f08c379a0000000000000000000000000000000000000000000000000000000008152600401620001e79062000c5c565b60405180910390fd5b6000808054905090506000888289898989896040516200021090620004bc565b62000222979695949392919062000e7f565b604051809103906000f0801580156200023f573d6000803e3d6000fd5b5090506000819080600181540180825580915050600190039060005260206000200160009091909190916101000a81548173ffffffffffffffffffffffffffffffffffffffff021916908373ffffffffffffffffffffffffffffffffffffffff160217905550806001600084815260200190815260200160002060006101000a81548173ffffffffffffffffffffffffffffffffffffffff021916908373ffffffffffffffffffffffffffffffffffffffff1602179055508860405162000307919062000f5a565b6040518091039020823373ffffffffffffffffffffffffffffffffffffffff167fa01b8cd48dea962542287b980cb1888e71c93c1cfcfc85e57bee284b5bc591888460405162000358919062000f98565b60405180910390a481925050509695505050505050565b60016020528060005260406000206000915054906101000a900473ffffffffffffffffffffffffffffffffffffffff1681565b60008181548110620003b357600080fd5b906000526020600020016000915054906101000a900473ffffffffffffffffffffffffffffffffffffffff1681565b6000808281548110620003fa57620003f962000fb5565b5b9060005260206000200160009054906101000a900473ffffffffffffffffffffffffffffffffffffffff169050919050565b60606000805480602002602001604051908101604052809291908181526020018280548015620004b257602002820191906000526020600020905b8160009054906101000a900473ffffffffffffffffffffffffffffffffffffffff1673ffffffffffffffffffffffffffffffffffffffff168152602001906001019080831162000467575b5050505050905090565b613b5f8062000fe583390190565b6000604051905090565b600080fd5b600080fd5b600080fd5b600080fd5b6000601f19601f8301169050919050565b7f4e487b7100000000000000000000000000000000000000000000000000000000600052604160045260246000fd5b6200053382620004e8565b810181811067ffffffffffffffff82111715620005555762000554620004f9565b5b80604052505050565b60006200056a620004ca565b905062000578828262000528565b919050565b600067ffffffffffffffff8211156200059b576200059a620004f9565b5b620005a682620004e8565b9050602081019050919050565b82818337600083830152505050565b6000620005d9620005d3846200057d565b6200055e565b905082815260208101848484011115620005f857620005f7620004e3565b5b62000605848285620005b3565b509392505050565b600082601f830112620006255762000624620004de565b5b813562000637848260208601620005c2565b91505092915050565b600067ffffffffffffffff8211156200065e576200065d620004f9565b5b6200066982620004e8565b9050602081019050919050565b60006200068d620006878462000640565b6200055e565b905082815260208101848484011115620006ac57620006ab620004e3565b5b620006b9848285620005b3565b509392505050565b600082601f830112620006d957620006d8620004de565b5b8135620006eb84826020860162000676565b91505092915050565b6000819050919050565b6200070981620006f4565b81146200071557600080fd5b50565b6000813590506200072981620006fe565b92915050565b600067ffffffffffffffff8211156200074d576200074c620004f9565b5b602082029050602081019050919050565b600080fd5b60006200077a62000774846200072f565b6200055e565b90508083825260208201905060208402830185811115620007a0576200079f6200075e565b5b835b81811015620007ee57803567ffffffffffffffff811115620007c957620007c8620004de565b5b808601620007d889826200060d565b85526020850194505050602081019050620007a2565b5050509392505050565b600082601f83011262000810576200080f620004de565b5b81356200082284826020860162000763565b91505092915050565b60008060008060008060c087890312156200084b576200084a620004d4565b5b600087013567ffffffffffffffff8111156200086c576200086b620004d9565b5b6200087a89828a016200060d565b965050602087013567ffffffffffffffff8111156200089e576200089d620004d9565b5b620008ac89828a01620006c1565b955050604087013567ffffffffffffffff811115620008d057620008cf620004d9565b5b620008de89828a01620006c1565b9450506060620008f189828a0162000718565b93505060806200090489828a0162000718565b92505060a087013567ffffffffffffffff811115620009285762000927620004d9565b5b6200093689828a01620007f8565b9150509295509295509295565b6200094e81620006f4565b82525050565b60006020820190506200096b600083018462000943565b92915050565b6000602082840312156200098a5762000989620004d4565b5b60006200099a8482850162000718565b91505092915050565b600073ffffffffffffffffffffffffffffffffffffffff82169050919050565b6000819050919050565b6000620009ee620009e8620009e284620009a3565b620009c3565b620009a3565b9050919050565b600062000a0282620009cd565b9050919050565b600062000a1682620009f5565b9050919050565b62000a288162000a09565b82525050565b600060208201905062000a45600083018462000a1d565b92915050565b600081519050919050565b600082825260208201905092915050565b6000819050602082019050919050565b62000a828162000a09565b82525050565b600062000a96838362000a77565b60208301905092915050565b6000602082019050919050565b600062000abc8262000a4b565b62000ac8818562000a56565b935062000ad58362000a67565b8060005b8381101562000b0c57815162000af0888262000a88565b975062000afd8362000aa2565b92505060018101905062000ad9565b5085935050505092915050565b6000602082019050818103600083015262000b35818462000aaf565b905092915050565b600082825260208201905092915050565b7f4e6f20656c656374696f6e732073686f72746572207468616e203120686f757260008201527f20616c6c6f776564000000000000000000000000000000000000000000000000602082015250565b600062000bac60288362000b3d565b915062000bb98262000b4e565b604082019050919050565b6000602082019050818103600083015262000bdf8162000b9d565b9050919050565b7f4e6f20656c656374696f6e73206c6f6e676572207468616e203420646179732060008201527f616c6c6f77656400000000000000000000000000000000000000000000000000602082015250565b600062000c4460278362000b3d565b915062000c518262000be6565b604082019050919050565b6000602082019050818103600083015262000c778162000c35565b9050919050565b600081519050919050565b60005b8381101562000ca957808201518184015260208101905062000c8c565b8381111562000cb9576000848401525b50505050565b600062000ccc8262000c7e565b62000cd8818562000b3d565b935062000cea81856020860162000c89565b62000cf581620004e8565b840191505092915050565b600081519050919050565b600082825260208201905092915050565b600062000d298262000d00565b62000d35818562000d0b565b935062000d4781856020860162000c89565b62000d5281620004e8565b840191505092915050565b600081519050919050565b600082825260208201905092915050565b6000819050602082019050919050565b600082825260208201905092915050565b600062000da78262000c7e565b62000db3818562000d89565b935062000dc581856020860162000c89565b62000dd081620004e8565b840191505092915050565b600062000de9838362000d9a565b905092915050565b6000602082019050919050565b600062000e0b8262000d5d565b62000e17818562000d68565b93508360208202850162000e2b8562000d79565b8060005b8581101562000e6d578484038952815162000e4b858262000ddb565b945062000e588362000df1565b925060208a0199505060018101905062000e2f565b50829750879550505050505092915050565b600060e082019050818103600083015262000e9b818a62000cbf565b905062000eac602083018962000943565b818103604083015262000ec0818862000d1c565b9050818103606083015262000ed6818762000d1c565b905062000ee7608083018662000943565b62000ef660a083018562000943565b81810360c083015262000f0a818462000dfe565b905098975050505050505050565b600081905092915050565b600062000f308262000c7e565b62000f3c818562000f18565b935062000f4e81856020860162000c89565b80840191505092915050565b600062000f68828462000f23565b915081905092915050565b600062000f8082620009a3565b9050919050565b62000f928162000f73565b82525050565b600060208201905062000faf600083018462000f87565b92915050565b7f4e487b7100000000000000000000000000000000000000000000000000000000600052603260045260246000fdfe60806040523480156200001157600080fd5b5060405162003b5f38038062003b5f83398181016040528101906200003791906200072d565b6020600681905550602060078190555086600090805190602001906200005f92919062000264565b508560018190555084600290805190602001906200007f929190620002f5565b50836003908051906020019062000098929190620002f5565b508142620000a791906200088b565b831115620000bc5782600481905550620000c4565b426004819055505b81600454620000d491906200088b565b600581905550600860405180606001604052806040518060400160405280600981526020017f4e756c6c20566f746500000000000000000000000000000000000000000000008152508152602001600081526020016000815250908060018154018082558091505060019003906000526020600020906003020160009091909190915060008201518160000190805190602001906200017592919062000264565b506020820151816001015560408201518160020155505060005b8151811015620002565760086040518060600160405280848481518110620001bc57620001bb620008e8565b5b6020026020010151815260200160008152602001600184620001df91906200088b565b815250908060018154018082558091505060019003906000526020600020906003020160009091909190915060008201518160000190805190602001906200022992919062000264565b506020820151816001015560408201518160020155505080806200024d9062000917565b9150506200018f565b5050505050505050620009ca565b828054620002729062000994565b90600052602060002090601f016020900481019282620002965760008555620002e2565b82601f10620002b157805160ff1916838001178555620002e2565b82800160010185558215620002e2579182015b82811115620002e1578251825591602001919060010190620002c4565b5b509050620002f1919062000386565b5090565b828054620003039062000994565b90600052602060002090601f01602090048101928262000327576000855562000373565b82601f106200034257805160ff191683800117855562000373565b8280016001018555821562000373579182015b828111156200037257825182559160200191906001019062000355565b5b50905062000382919062000386565b5090565b5b80821115620003a157600081600090555060010162000387565b5090565b6000604051905090565b600080fd5b600080fd5b600080fd5b600080fd5b6000601f19601f8301169050919050565b7f4e487b7100000000000000000000000000000000000000000000000000000000600052604160045260246000fd5b6200040e82620003c3565b810181811067ffffffffffffffff8211171562000430576200042f620003d4565b5b80604052505050565b600062000445620003a5565b905062000453828262000403565b919050565b600067ffffffffffffffff821115620004765762000475620003d4565b5b6200048182620003c3565b9050602081019050919050565b60005b83811015620004ae57808201518184015260208101905062000491565b83811115620004be576000848401525b50505050565b6000620004db620004d58462000458565b62000439565b905082815260208101848484011115620004fa57620004f9620003be565b5b620005078482856200048e565b509392505050565b600082601f830112620005275762000526620003b9565b5b815162000539848260208601620004c4565b91505092915050565b6000819050919050565b620005578162000542565b81146200056357600080fd5b50565b60008151905062000577816200054c565b92915050565b600067ffffffffffffffff8211156200059b576200059a620003d4565b5b620005a682620003c3565b9050602081019050919050565b6000620005ca620005c4846200057d565b62000439565b905082815260208101848484011115620005e957620005e8620003be565b5b620005f68482856200048e565b509392505050565b600082601f830112620006165762000615620003b9565b5b815162000628848260208601620005b3565b91505092915050565b600067ffffffffffffffff8211156200064f576200064e620003d4565b5b602082029050602081019050919050565b600080fd5b60006200067c620006768462000631565b62000439565b90508083825260208201905060208402830185811115620006a257620006a162000660565b5b835b81811015620006f057805167ffffffffffffffff811115620006cb57620006ca620003b9565b5b808601620006da89826200050f565b85526020850194505050602081019050620006a4565b5050509392505050565b600082601f830112620007125762000711620003b9565b5b81516200072484826020860162000665565b91505092915050565b600080600080600080600060e0888a0312156200074f576200074e620003af565b5b600088015167ffffffffffffffff81111562000770576200076f620003b4565b5b6200077e8a828b016200050f565b9750506020620007918a828b0162000566565b965050604088015167ffffffffffffffff811115620007b557620007b4620003b4565b5b620007c38a828b01620005fe565b955050606088015167ffffffffffffffff811115620007e757620007e6620003b4565b5b620007f58a828b01620005fe565b9450506080620008088a828b0162000566565b93505060a06200081b8a828b0162000566565b92505060c088015167ffffffffffffffff8111156200083f576200083e620003b4565b5b6200084d8a828b01620006fa565b91505092959891949750929550565b7f4e487b7100000000000000000000000000000000000000000000000000000000600052601160045260246000fd5b6000620008988262000542565b9150620008a58362000542565b9250827fffffffffffffffffffffffffffffffffffffffffffffffffffffffffffffffff03821115620008dd57620008dc6200085c565b5b828201905092915050565b7f4e487b7100000000000000000000000000000000000000000000000000000000600052603260045260246000fd5b6000620009248262000542565b91507fffffffffffffffffffffffffffffffffffffffffffffffffffffffffffffffff8214156200095a57620009596200085c565b5b600182019050919050565b7f4e487b7100000000000000000000000000000000000000000000000000000000600052602260045260246000fd5b60006002820490506001821680620009ad57607f821691505b60208210811415620009c457620009c362000965565b5b50919050565b61318580620009da6000396000f3fe608060405234801561001057600080fd5b506004361061004c5760003560e01c80639d9d3b2d14610051578063c6b19d6a1461006f578063d8bff5a51461008b578063dfbf53ae146100bd575b600080fd5b6100596100dd565b60405161006691906124f0565b60405180910390f35b6100896004803603810190610084919061265b565b6104d2565b005b6100a560048036038101906100a09190612760565b610ab4565b6040516100b493929190612835565b60405180910390f35b6100c5610cdc565b6040516100d4939291906128d3565b60405180910390f35b6100e56121f4565b6005544211610129576040517f08c379a000000000000000000000000000000000000000000000000000000000815260040161012090612983565b60405180910390fd5b60006009600001805461013b906129d2565b9050146101fc57600960405180606001604052908160008201805461015f906129d2565b80601f016020809104026020016040519081016040528092919081815260200182805461018b906129d2565b80156101d85780601f106101ad576101008083540402835291602001916101d8565b820191906000526020600020905b8154815290600101906020018083116101bb57829003601f168201915b505050505081526020016001820154815260200160028201548152505090506104cf565b6102046121f4565b60005b600880549050811015610369576009600101546008828154811061022e5761022d612a04565b5b90600052602060002090600302016001015410610356576009604051806060016040529081600082018054610262906129d2565b80601f016020809104026020016040519081016040528092919081815260200182805461028e906129d2565b80156102db5780601f106102b0576101008083540402835291602001916102db565b820191906000526020600020905b8154815290600101906020018083116102be57829003601f168201915b505050505081526020016001820154815260200160028201548152505091506008818154811061030e5761030d612a04565b5b906000526020600020906003020160096000820181600001908054610332906129d2565b61033d929190612215565b5060018201548160010155600282015481600201559050505b808061036190612a62565b915050610207565b50600960010154816020015114156104185760405180606001604052806040518060400160405280600481526020017f44726177000000000000000000000000000000000000000000000000000000008152508152602001600960010154815260200160016008805490506103de9190612aab565b815250600960008201518160000190805190602001906103ff9291906122a2565b5060208201518160010155604082015181600201559050505b6009604051806060016040529081600082018054610435906129d2565b80601f0160208091040260200160405190810160405280929190818152602001828054610461906129d2565b80156104ae5780601f10610483576101008083540402835291602001916104ae565b820191906000526020600020905b81548152906001019060200180831161049157829003601f168201915b50505050508152602001600182015481526020016002820154815250509150505b90565b6005544210610516576040517f08c379a000000000000000000000000000000000000000000000000000000000815260040161050d90612b73565b60405180910390fd5b60006040518060400160405280858152602001838152509050600061053d85600080610d7c565b9050600061054d84600080610d7c565b905060006105e760038054610561906129d2565b80601f016020809104026020016040519081016040528092919081815260200182805461058d906129d2565b80156105da5780601f106105af576101008083540402835291602001916105da565b820191906000526020600020905b8154815290600101906020018083116105bd57829003601f168201915b5050505050600080610d7c565b905060006105f6848484610e05565b905060006106906002805461060a906129d2565b80601f0160208091040260200160405190810160405280929190818152602001828054610636906129d2565b80156106835780601f1061065857610100808354040283529160200191610683565b820191906000526020600020905b81548152906001019060200180831161066657829003601f168201915b5050505050600080610d7c565b9050600061069f838386610e29565b90506060806106b18360000151610f0b565b8092508193505050818b6040516020016106cc929190612bcf565b60405160208183030381529060405280519060200120816106ec90612c2f565b1461072c576040517f08c379a000000000000000000000000000000000000000000000000000000000815260040161072390612ce2565b60405180910390fd5b6000610737836110d0565b9050600080600090506000600190505b81158015610759575060088054905081105b156107f1578360405160200161076f9190612d3e565b604051602081830303815290604052805190602001206008828154811061079957610798612a04565b5b90600052602060002090600302016000016040516020016107ba9190612de9565b6040516020818303038152906040528051906020012014156107de57600191508092505b80806107e990612a62565b915050610747565b50806107fc57600091505b600882815481106108105761080f612a04565b5b9060005260206000209060030201600101600081548092919061083290612a62565b919050555060405180606001604052803373ffffffffffffffffffffffffffffffffffffffff1681526020018d81526020016008848154811061087857610877612a04565b5b90600052602060002090600302016040518060600160405290816000820180546108a1906129d2565b80601f01602080910402602001604051908101604052809291908181526020018280546108cd906129d2565b801561091a5780601f106108ef5761010080835404028352916020019161091a565b820191906000526020600020905b8154815290600101906020018083116108fd57829003601f168201915b5050505050815260200160018201548152602001600282015481525050815250600c60003373ffffffffffffffffffffffffffffffffffffffff1673ffffffffffffffffffffffffffffffffffffffff16815260200190815260200160002060008201518160000160006101000a81548173ffffffffffffffffffffffffffffffffffffffff021916908373ffffffffffffffffffffffffffffffffffffffff16021790555060208201518160010160008201518160000190805190602001906109e5929190612328565b506020820151816001019080519060200190610a02929190612328565b5050506040820151816003016000820151816000019080519060200190610a2a9291906122a2565b50602082015181600101556040820151816002015550509050507f577a95891eb3fd2d06277c6464ba8af00cacdbdb91925351050f7ffaa44faf1a338560088581548110610a7b57610a7a612a04565b5b9060005260206000209060030201600001604051610a9b93929190612eca565b60405180910390a1505050505050505050505050505050565b600c6020528060005260406000206000915090508060000160009054906101000a900473ffffffffffffffffffffffffffffffffffffffff169080600101604051806040016040529081600082018054610b0d906129d2565b80601f0160208091040260200160405190810160405280929190818152602001828054610b39906129d2565b8015610b865780601f10610b5b57610100808354040283529160200191610b86565b820191906000526020600020905b815481529060010190602001808311610b6957829003601f168201915b50505050508152602001600182018054610b9f906129d2565b80601f0160208091040260200160405190810160405280929190818152602001828054610bcb906129d2565b8015610c185780601f10610bed57610100808354040283529160200191610c18565b820191906000526020600020905b815481529060010190602001808311610bfb57829003601f168201915b5050505050815250509080600301604051806060016040529081600082018054610c41906129d2565b80601f0160208091040260200160405190810160405280929190818152602001828054610c6d906129d2565b8015610cba5780601f10610c8f57610100808354040283529160200191610cba565b820191906000526020600020905b815481529060010190602001808311610c9d57829003601f168201915b5050505050815260200160018201548152602001600282015481525050905083565b6009806000018054610ced906129d2565b80601f0160208091040260200160405190810160405280929190818152602001828054610d19906129d2565b8015610d665780601f10610d3b57610100808354040283529160200191610d66565b820191906000526020600020905b815481529060010190602001808311610d4957829003601f168201915b5050505050908060010154908060020154905083565b610d846123ae565b600060208551610d949190612f3e565b14610d9e57600080fd5b81610db157838160000181905250610ddc565b606060208551016040518181838960046101c2fa819350828201604052505050808260000181905250505b82816020019015159081151581525050610df5846112c6565b8160400181815250509392505050565b610e0d6123ae565b610e20610e1a8585611305565b8361135f565b90509392505050565b610e316123ae565b600015158360200151151514610e4657600080fd5b6000610e5f8560000151856000015185600001516113b4565b9050600060208201519050610100600160208451610e7d9190612f6f565b610e879190612fa0565b610e919190612fd4565b610e9a82611486565b610ea49190612aab565b905081836000018190525060001515866020015115151480610edb575085602001518015610eda57506000610ed8866116e6565b145b5b610ee6576001610ee9565b60005b8360200190151590811515815250508083604001818152505050509392505050565b606080600060065467ffffffffffffffff811115610f2c57610f2b612530565b5b6040519080825280601f01601f191660200182016040528015610f5e5781602001600182028036833780820191505090505b509050600060075467ffffffffffffffff811115610f7f57610f7e612530565b5b6040519080825280601f01601f191660200182016040528015610fb15781602001600182028036833780820191505090505b50905060005b60065481101561103457858181518110610fd457610fd3612a04565b5b602001015160f81c60f81b838281518110610ff257610ff1612a04565b5b60200101907effffffffffffffffffffffffffffffffffffffffffffffffffffffffffffff1916908160001a905350808061102c90612a62565b915050610fb7565b5060005b6007548110156110c25785600654826110519190612aab565b8151811061106257611061612a04565b5b602001015160f81c60f81b8282815181106110805761107f612a04565b5b60200101907effffffffffffffffffffffffffffffffffffffffffffffffffffffffffffff1916908160001a90535080806110ba90612a62565b915050611038565b508181935093505050915091565b60606000806001905060008080600090505b86518110156111c857600060f81b87828151811061110357611102612a04565b5b602001015160f81c60f81b7effffffffffffffffffffffffffffffffffffffffffffffffffffffffffffff191614801561113a5750835b1561115257848061114a90612a62565b955050611157565b600093505b600060f81b87828151811061116f5761116e612a04565b5b602001015160f81c60f81b7effffffffffffffffffffffffffffffffffffffffffffffffffffffffffffff1916141580156111a8575082155b156111b557809150600192505b80806111c090612a62565b9150506110e2565b5060008487516111d89190612fa0565b67ffffffffffffffff8111156111f1576111f0612530565b5b6040519080825280601f01601f1916602001820160405280156112235781602001600182028036833780820191505090505b5090506000808390505b88518110156112b75788818151811061124957611248612a04565b5b602001015160f81c60f81b83838151811061126757611266612a04565b5b60200101907effffffffffffffffffffffffffffffffffffffffffffffffffffffffffffff1916908160001a90535081806112a190612a62565b92505080806112af90612a62565b91505061122d565b50819650505050505050919050565b600080602083015190506008602084516112e09190612fa0565b6112ea9190612fd4565b6112f382611486565b6112fd9190612aab565b915050919050565b61130d6123ae565b611319838360006116fb565b9050600061132984846001611804565b1461134c57600061133c848460016116fb565b905061134882826119f9565b9150505b611357816002611c4e565b905092915050565b6113676123ae565b6000604051806060016040528060405180604001604052806020815260200160018152508152602001600015158152602001600181525090506113ab848285610e29565b91505092915050565b606083518351835160405183815282602082015281604082015283606082018560208b0160046101c2fa84606001848184018660208c0160046101c2fa91508481019050838184018560208b0160046101c2fa9150816000811461141757611419565bfe5b5083810190508383606001828560056105465a03fa9150816000811461143e57611440565bfe5b5083836060015b60016000825114141561146557602081019050602082039150611447565b60208103985081895285856060010160405250505050505050509392505050565b60008082905060018303925060028304831792506004830483179250601083048317925061010083048317925062010000830483179250640100000000830483179250680100000000000000008304831792507001000000000000000000000000000000008304831792506001830192506040517ff8f9cbfae6cc78fbefe7cdc3a1793dfcf4f0e8bbd8cec470b6a28a7a5a3e1efd81527ff5ecf1b3e9debc68e1d9cfabc5997135bfb7a7a3938b7b606b5b4b3f2f1f0ffe60208201527ff6e4ed9ff2d6b458eadcdf97bd91692de2d4da8fd2d0ac50c6ae9a827252361660408201527fc8c0b887b0a8a4489c948c7f847c6125746c645c544c444038302820181008ff60608201527ff7cae577eec2a03cf3bad76fb589591debb2dd67e0aa9834bea6925f6a4a2e0e60808201527fe39ed557db96902cd38ed14fad815115c786af479b7e8324736353433727170760a08201527fc976c13bb96e881cb166a933a55e490d9d56952b8d4e801485467d236242260660c08201527f753a6d1b65325d0c552a4d1345224105391a310b29122104190a11030902010060e082015261010081016040527e818283848586878898a8b8c8d8e8f929395969799a9b9d9e9faaeb6bedeeff7f01000000000000000000000000000000000000000000000000000000000000008082870204818160ff038501510495507f8000000000000000000000000000000000000000000000000000000000000000851161010002860195505050505060006001826116be9190612fa0565b82161480156116ce575060008314155b156116e057816116dd90612a62565b91505b50919050565b60008151518251016002815106915050919050565b6117036123ae565b6000604051806060016040528060405180604001604052806020815260200160028152508152602001600015158152602001600281525090506000806060600086146117585761175388886119f9565b611763565b6117628888611d39565b5b9450600085604001519050600281029350610100846117829190612f3e565b6001901b92506040518060400160405280602081526020016000815250915060206001610100860401028252826020830152602082510182016040526117c66123ae565b8281600001819052506000816020019015159081151581525050848160400181815250506117f5878783610e29565b96505050505050509392505050565b6000806001905082156118cf5784602001518015611823575083602001515b15611850577fffffffffffffffffffffffffffffffffffffffffffffffffffffffffffffffff90506118ce565b600015158560200151151514801561187057506001151584602001511515145b1561187f5760019150506119f2565b600115158560200151151514801561189f57506000151584602001511515145b156118cd577fffffffffffffffffffffffffffffffffffffffffffffffffffffffffffffffff9150506119f2565b5b5b8360400151856040015111156118f4578060016118ec9190613038565b9150506119f2565b84604001518460400151111561193857807fffffffffffffffffffffffffffffffffffffffffffffffffffffffffffffffff6119309190613038565b9150506119f2565b6000806000806000896000015151905060208a510194506020895101935060005b818110156119e65780860151935080850151925082841115611990578660016119829190613038565b9750505050505050506119f2565b838311156119d257867fffffffffffffffffffffffffffffffffffffffffffffffffffffffffffffffff6119c49190613038565b9750505050505050506119f2565b6020816119df9190612aab565b9050611959565b50600096505050505050505b9392505050565b611a016123ae565b6000604051806060016040528060405180604001604052806020815260200160008152508152602001600015158152602001600081525090506060600080611a4b87876000611804565b9150866020015180611a5e575085602001515b15611b915786602001518015611a75575085602001515b15611b1d576001821415611ab357611a9587600001518760000151611f95565b80925081945050506001856020019015159081151581525050611b18565b7fffffffffffffffffffffffffffffffffffffffffffffffffffffffffffffffff821415611b0b57611aed86600001518860000151611f95565b80925081945050506000856020019015159081151581525050611b17565b83945050505050611c48565b5b611b8c565b60008212611b4957611b3c8760000151876000015189604001516120a3565b8092508194505050611b69565b611b608660000151886000015188604001516120a3565b80925081945050505b8660200151611b79576000611b7c565b60015b8560200190151590811515815250505b611c30565b6001821415611bca57611bac87600001518760000151611f95565b80925081945050506000856020019015159081151581525050611c2f565b7fffffffffffffffffffffffffffffffffffffffffffffffffffffffffffffffff821415611c2257611c0486600001518860000151611f95565b80925081945050506001856020019015159081151581525050611c2e565b83945050505050611c48565b5b5b82856000018190525080856040018181525050505050505b92915050565b611c566123ae565b606060008084610100611c699190612fa0565b9050600080600080896000015151905060206000039150808a5101925060006020820390505b82811015611cdb57835196506000811460018114611cb35760208503519550611cb8565b600095505b508987901c96508585901b94508487178452602084039350602081039050611c8f565b506020830192505b600083511415611cfe57602083019250602081039050611ce3565b602083039650808752868a60000181905250888a60400151611d209190612fa0565b8a60400181815250508997505050505050505092915050565b611d416123ae565b60006040518060600160405280604051806040016040528060208152602001600081525081526020016000151581526020016000815250905060008460400151148015611d92575060008360400151145b15611da05780915050611f8f565b600084604001511415611db65782915050611f8f565b600083604001511415611dcc5783915050611f8f565b6060600080611ddd87876000611804565b9050866020015180611df0575085602001515b15611f195786602001518015611e07575085602001515b15611e6e5760008112611e3857611e2b8760000151876000015189604001516120a3565b8093508194505050611e58565b611e4f8660000151886000015188604001516120a3565b80935081945050505b6001856020019015159081151581525050611f14565b6001811415611eaa57611e8987600001518760000151611f95565b80935081945050508660200151856020019015159081151581525050611f13565b7fffffffffffffffffffffffffffffffffffffffffffffffffffffffffffffffff811415611f0657611ee486600001518860000151611f95565b8093508194505050866020015115856020019015159081151581525050611f12565b83945050505050611f8f565b5b5b611f77565b60008112611f4557611f388760000151876000015189604001516120a3565b8093508194505050611f65565b611f5c8660000151886000015188604001516120a3565b80935081945050505b60008560200190151590811515815250505b82856000018190525081856040018181525050505050505b92915050565b606060006060600059600160000387518751808203828b01828b0184870160208101865b6000808214141561204a57845186821160018114611ffb578c8203855260018d14600083141660018114611ff05760009d50611ff5565b60019d505b50612031565b85518d81840303865260018e148c8214168e8201841017600181146120235760009e50612028565b60019e505b50602087039650505b5060208403935060208603955050602081039050611fb9565b506020820191505b60008251141561207357602089019850602087039650602082019150612052565b889a50868b52806040525050505050505050506000612091836112c6565b90508281945094505050509250929050565b606060006060596001600003600088518901885189018a5160208601018b515b600080821414156121705783518c518e51038211600181146121085786820184526001871482891416600181146120fd5760009750612102565b600197505b50612157565b8451878184010185528781038903831160018114612149576000821160008a11178a8514166001811461213e5760009950612143565b600199505b5061214e565b600198505b50602086039550505b50602083039250602085039450506020810390506120c3565b506000841460018114612186576001825261218d565b6020870196505b50859650836020028c51018752602087510187016040525050505050506000602082015190506001610100866121c39190612f3e565b82901c14806121d25750600181145b156121e457846121e190612a62565b94505b8185935093505050935093915050565b60405180606001604052806060815260200160008152602001600081525090565b828054612221906129d2565b90600052602060002090601f0160209004810192826122435760008555612291565b82601f106122545780548555612291565b8280016001018555821561229157600052602060002091601f016020900482015b82811115612290578254825591600101919060010190612275565b5b50905061229e91906123d1565b5090565b8280546122ae906129d2565b90600052602060002090601f0160209004810192826122d05760008555612317565b82601f106122e957805160ff1916838001178555612317565b82800160010185558215612317579182015b828111156123165782518255916020019190600101906122fb565b5b50905061232491906123d1565b5090565b828054612334906129d2565b90600052602060002090601f016020900481019282612356576000855561239d565b82601f1061236f57805160ff191683800117855561239d565b8280016001018555821561239d579182015b8281111561239c578251825591602001919060010190612381565b5b5090506123aa91906123d1565b5090565b604051806060016040528060608152602001600015158152602001600081525090565b5b808211156123ea5760008160009055506001016123d2565b5090565b600081519050919050565b600082825260208201905092915050565b60005b8381101561242857808201518184015260208101905061240d565b83811115612437576000848401525b50505050565b6000601f19601f8301169050919050565b6000612459826123ee565b61246381856123f9565b935061247381856020860161240a565b61247c8161243d565b840191505092915050565b6000819050919050565b61249a81612487565b82525050565b600060608301600083015184820360008601526124bd828261244e565b91505060208301516124d26020860182612491565b5060408301516124e56040860182612491565b508091505092915050565b6000602082019050818103600083015261250a81846124a0565b905092915050565b6000604051905090565b600080fd5b600080fd5b600080fd5b600080fd5b7f4e487b7100000000000000000000000000000000000000000000000000000000600052604160045260246000fd5b6125688261243d565b810181811067ffffffffffffffff8211171561258757612586612530565b5b80604052505050565b600061259a612512565b90506125a6828261255f565b919050565b600067ffffffffffffffff8211156125c6576125c5612530565b5b6125cf8261243d565b9050602081019050919050565b82818337600083830152505050565b60006125fe6125f9846125ab565b612590565b90508281526020810184848401111561261a5761261961252b565b5b6126258482856125dc565b509392505050565b600082601f83011261264257612641612526565b5b81356126528482602086016125eb565b91505092915050565b6000806000606084860312156126745761267361251c565b5b600084013567ffffffffffffffff81111561269257612691612521565b5b61269e8682870161262d565b935050602084013567ffffffffffffffff8111156126bf576126be612521565b5b6126cb8682870161262d565b925050604084013567ffffffffffffffff8111156126ec576126eb612521565b5b6126f88682870161262d565b9150509250925092565b600073ffffffffffffffffffffffffffffffffffffffff82169050919050565b600061272d82612702565b9050919050565b61273d81612722565b811461274857600080fd5b50565b60008135905061275a81612734565b92915050565b6000602082840312156127765761277561251c565b5b60006127848482850161274b565b91505092915050565b61279681612722565b82525050565b600081519050919050565b600082825260208201905092915050565b60006127c38261279c565b6127cd81856127a7565b93506127dd81856020860161240a565b6127e68161243d565b840191505092915050565b6000604083016000830151848203600086015261280e82826127b8565b9150506020830151848203602086015261282882826127b8565b9150508091505092915050565b600060608201905061284a600083018661278d565b818103602083015261285c81856127f1565b9050818103604083015261287081846124a0565b9050949350505050565b600082825260208201905092915050565b6000612896826123ee565b6128a0818561287a565b93506128b081856020860161240a565b6128b98161243d565b840191505092915050565b6128cd81612487565b82525050565b600060608201905081810360008301526128ed818661288b565b90506128fc60208301856128c4565b61290960408301846128c4565b949350505050565b7f456c656374696f6e206d7573742062652066696e697368656420746f20636f6d60008201527f707574652074616c6c792e000000000000000000000000000000000000000000602082015250565b600061296d602b8361287a565b915061297882612911565b604082019050919050565b6000602082019050818103600083015261299c81612960565b9050919050565b7f4e487b7100000000000000000000000000000000000000000000000000000000600052602260045260246000fd5b600060028204905060018216806129ea57607f821691505b602082108114156129fe576129fd6129a3565b5b50919050565b7f4e487b7100000000000000000000000000000000000000000000000000000000600052603260045260246000fd5b7f4e487b7100000000000000000000000000000000000000000000000000000000600052601160045260246000fd5b6000612a6d82612487565b91507fffffffffffffffffffffffffffffffffffffffffffffffffffffffffffffffff821415612aa057612a9f612a33565b5b600182019050919050565b6000612ab682612487565b9150612ac183612487565b9250827fffffffffffffffffffffffffffffffffffffffffffffffffffffffffffffffff03821115612af657612af5612a33565b5b828201905092915050565b7f456c656374696f6e2068617320616c72656164792066696e69736865642e204e60008201527f6f206d6f726520766f7465732061636365707465642e00000000000000000000602082015250565b6000612b5d60368361287a565b9150612b6882612b01565b604082019050919050565b60006020820190508181036000830152612b8c81612b50565b9050919050565b600081905092915050565b6000612ba98261279c565b612bb38185612b93565b9350612bc381856020860161240a565b80840191505092915050565b6000612bdb8285612b9e565b9150612be78284612b9e565b91508190509392505050565b6000819050602082019050919050565b6000819050919050565b6000612c198251612c03565b80915050919050565b600082821b905092915050565b6000612c3a8261279c565b82612c4484612bf3565b9050612c4f81612c0d565b92506020821015612c8f57612c8a7fffffffffffffffffffffffffffffffffffffffffffffffffffffffffffffffff83602003600802612c22565b831692505b5050919050565b7f496e76616c696420686173680000000000000000000000000000000000000000600082015250565b6000612ccc600c8361287a565b9150612cd782612c96565b602082019050919050565b60006020820190508181036000830152612cfb81612cbf565b9050919050565b600081905092915050565b6000612d18826123ee565b612d228185612d02565b9350612d3281856020860161240a565b80840191505092915050565b6000612d4a8284612d0d565b915081905092915050565b60008190508160005260206000209050919050565b60008154612d77816129d2565b612d818186612d02565b94506001821660008114612d9c5760018114612dad57612de0565b60ff19831686528186019350612de0565b612db685612d55565b60005b83811015612dd857815481890152600182019150602081019050612db9565b838801955050505b50505092915050565b6000612df58284612d6a565b915081905092915050565b600082825260208201905092915050565b6000612e1c8261279c565b612e268185612e00565b9350612e3681856020860161240a565b612e3f8161243d565b840191505092915050565b60008154612e57816129d2565b612e61818661287a565b94506001821660008114612e7c5760018114612e8e57612ec1565b60ff1983168652602086019350612ec1565b612e9785612d55565b60005b83811015612eb957815481890152600182019150602081019050612e9a565b808801955050505b50505092915050565b6000606082019050612edf600083018661278d565b8181036020830152612ef18185612e11565b90508181036040830152612f058184612e4a565b9050949350505050565b7f4e487b7100000000000000000000000000000000000000000000000000000000600052601260045260246000fd5b6000612f4982612487565b9150612f5483612487565b925082612f6457612f63612f0f565b5b828206905092915050565b6000612f7a82612487565b9150612f8583612487565b925082612f9557612f94612f0f565b5b828204905092915050565b6000612fab82612487565b9150612fb683612487565b925082821015612fc957612fc8612a33565b5b828203905092915050565b6000612fdf82612487565b9150612fea83612487565b9250817fffffffffffffffffffffffffffffffffffffffffffffffffffffffffffffffff048311821515161561302357613022612a33565b5b828202905092915050565b6000819050919050565b60006130438261302e565b915061304e8361302e565b9250827f7fffffffffffffffffffffffffffffffffffffffffffffffffffffffffffffff048211600084136000841316161561308d5761308c612a33565b5b817f800000000000000000000000000000000000000000000000000000000000000005831260008412600084131616156130ca576130c9612a33565b5b827f8000000000000000000000000000000000000000000000000000000000000000058212600084136000841216161561310757613106612a33565b5b827f7fffffffffffffffffffffffffffffffffffffffffffffffffffffffffffffff058212600084126000841216161561314457613143612a33565b5b82820290509291505056fea264697066735822122022295aa2f9a20bdf10430c4956b2203e8b3f930e2fbb6d81a59b8037a9bd7c4b64736f6c634300080a0033a26469706673582212208129dbeb923258312b9d7d8eb94b41dcbbb526ab84b9cfbc3c3050a06aa9f7e764736f6c634300080a0033",
  "linkReferences": {},
  "deployedLinkReferences": {}
}